:020000020000FC
:1000000012C083C710C00FC00EC00DC00CC00BC003
:100010007AC709C008C007C006C005C004C003C035
:1000200002C001C000C01FE51DBF14E01EBF1FEFCE
:1000300017BB14E014BB10EF11BB10EC18BB18E792
:1000400015BB1FE012BB14E019BF10E01FBD13E089
:100050001EBD13E918B912E017B910E116B910E086
:1000600010BF91D643D611276FD6112773D6DCD691
:1000700099241AE0812E112767D611276BD61127F4
:1000800004E51F93E2E2F6E14BD61F91139510139E
:10009000F8CF09D808D807D812E1C12E61D61127A8
:1000A00053D6112757D611270AE21F93EAE1F8E148
:1000B00037D61F9113951013F8CF10E045D613E0F3
:1000C00049D60027EAE3FFE010E0E00FF11FC895F2
:1000D000102D173119F022D60395F4CF1FE134D635
:1000E00015E038D60027E2E7FFE010E0E00FF11F4F
:1000F000C895102D173119F011D60395F4CFD3D729
:1001000078949924C29AAA9A9B9B09C0839B0EC09B
:100110009D9B13C0829B18C08910F6CFCBC5A5D775
:100120009B99F2CFA2D79B9BFDCF15C09ED78399F9
:10013000EBCF9BD7839BFDCF0EC097D79D99E4CF84
:1001400094D79D9BFDCF07C090D78299DDCF8DD7E7
:10015000829BFDCF00C0F89403D690EA26D680E0BB
:1001600042D691EA1DD608943ED6809360000000E6
:1001700090EA1BD681E037D691EA12D6089433D69E
:1001800080936100000090EA10D682E02CD691EABC
:1001900007D6089428D680936200000090EA05D61E
:1001A00083E021D691EAFCD508941DD680936300A4
:1001B000000090EAFAD584E016D691EAF1D50894C9
:1001C00012D680936400000090EAEFD585E00BD64C
:1001D00091EAE6D5089407D680936500000090EA7E
:1001E000E4D586E000D691EADBD50894FCD580936F
:1001F000660090EADAD585E3F6D591EAD1D5089480
:10020000F2D580936E00000090EACFD586E3EBD55F
:1002100091EAC6D50894E7D580936F00000090EA74
:10022000C4D587E3E0D591EABBD50894DCD58093AB
:100230007000000090EAB9D588E3D5D591EAB0D531
:100240000894D1D580937100000090EAAED589E37F
:10025000CAD591EAA5D50894C6D58093720000004E
:1002600090EAA3D58AE3BFD591EA9AD50894BBD585
:1002700080937300000090EA98D58BE3B4D591EA9F
:100280008FD50894B0D580937400000090EA8DD586
:100290008CE3A9D591EA84D50894A5D580937500FF
:1002A000000090EA82D58DE39ED591EA79D5089435
:1002B0009AD580937600000090EA77D58EE393D5A7
:1002C00091EA6ED508948FD580937700000090EA6C
:1002D0006CD58FE388D591EA63D5089484D5809353
:1002E00078003ED50027E0E1FFE010E0E00FF11FCD
:1002F000C895102D173119F011D50395F4CF17E1DA
:1003000023D511E027D51091600008D51091610028
:1003100005D51091620002D510916300FFD41091B1
:100320006400FCD410916500F9D410916600F6D4F5
:100330001AE00AD512E00ED50027E0E2FFE010E057
:10034000E00FF11FC895102D173119F0E7D4039570
:10035000F4CF1AE0F9D413E0FDD410916E00DED48E
:1003600010916F00DBD410917000D8D410917100FF
:10037000D5D410917200D2D410917300CFD41091C3
:100380007400CCD410917500C9D410917600C6D4F5
:1003900010917700C3D410917800C0D410E0D4D469
:1003A00015E0D8D41CE3BAD419E4CED415E0D2D4E5
:1003B0001EE3B4D4789499249B9B07C0839B0CC004
:1003C000829B11C08910F8CF75C44FD69B99F4CF8A
:1003D0004CD69B9BFDCF62CE48D68399EDCF45D6B8
:1003E000839BFDCF07C041D68299E6CF3ED6829B44
:1003F000FDCF54CEB5D413E1A7D410E0ABD4002781
:10040000EAE4FFE010E0E00FF11FC895102D17316E
:1004100019F084D40395F4CF10E096D411E09AD467
:100420000027E4E5FFE010E0E00FF11FC895102D74
:10043000173119F073D40395F4CF19E185D414E082
:1004400089D40027ECE7FFE010E0E00FF11FC8952A
:10045000102D173119F062D40395F4CF10E074D445
:1004600015E078D40027E2E6FFE010E0E00FF11F8E
:10047000C895102D173119F051D40395F4CF01E030
:10048000B1E0A0E276D0992478949B9B0FC09D9B0D
:1004900014C0829B19C0839B1EC09C9B23C0809B61
:1004A0002EC0819B39C08910F0CF04C4DED59B9942
:1004B000ECCFDBD59B9BFDCF3CC0D7D59D99E5CF3D
:1004C000D4D59D9BFDCF9FC1D0D58299DECFCDD510
:1004D000829BFDCFE3CDC9D58399D7CFC6D5839B6A
:1004E000FDCF37C0C2D59C99D0CFDDD59C99B9C07E
:1004F000DAD59C99B6C0D7D59C99B3C000C1B5D503
:100500008099C3CFD0D58099C6C0CDD58099C3C0BE
:10051000CAD58099C0C019C1A8D58199B6CFC3D515
:100520008199D3C0C0D58199D0C0BDD58199CDC0A6
:1005300032C19924013041F0DC97DC97DC97DC97DD
:10054000D09717D00A95A1CF0C2DB4E1A0E411D01B
:100550009CCF99240C1541F0DC96DC96DC96DC9659
:10056000D09607D0039591CF01E0B1E0A0E201D091
:100570008CCFBF93AF93119690EA5ED48B2F7AD431
:100580008A2F78D491EA53D4089474D4182F113157
:1005900031F01232B1F0133331F11434B1F110E013
:1005A000D3D312E0D7D3FF24E6EAFFE010E0EF0D4B
:1005B000F11FC895102D173119F0B0D3F394F4CF73
:1005C00035C010E0C1D312E0C5D3FF24E4EBFFE057
:1005D00010E0EF0DF11FC895102D173119F09ED3C3
:1005E000F394F4CF23C010E0AFD312E0B3D3FF24D1
:1005F000E2ECFFE010E0EF0DF11FC895102D173170
:1006000019F08CD3F394F4CF11C010E09DD312E015
:10061000A1D3FF24E0EDFFE010E0EF0DF11FC8953E
:10062000102D173119F07AD3F394F4CF10E08CD356
:1006300013E090D3FF24119690EAFED38B2F1AD4A7
:100640008A2F18D491EAF3D3089414D4182F66D3C0
:100650001196F3941F2D1E3079F7AF91BF91992415
:100660000895E199FECF11271FBB10E11EBBE09A50
:100670000DB3E199FECF11271FBB11E11EBBE09A1C
:10068000BDB3E199FECF11271FBB12E11EBBE09A5B
:10069000ADB36FDFFACEE199FECF11271FBB10E299
:1006A0001EBBE09A0DB3E199FECF11271FBB11E2EB
:1006B0001EBBE09ABDB3E199FECF11271FBB12E22A
:1006C0001EBBE09AADB355DFE0CEE199FECF112716
:1006D0001FBB10E31EBBE09A0DB3E199FECF1127BB
:1006E0001FBB11E31EBBE09ABDB3E199FECF1127FA
:1006F0001FBB12E31EBBE09AADB33BDFC6CEC8D42E
:10070000F894E199FECF11271FBB10E11EBB0DBB72
:10071000E29AE19ABDD4E199FECF11271FBB11E106
:100720001EBBBDBBE29AE19AB3D4E199FECF11277B
:100730001FBB12E11EBBADBBE29AE19AA9D478942B
:1007400050D093D49C9BFDCFA0CEA2D4F894E19935
:10075000FECF11271FBB10E21EBB0DBBE29AE19A30
:1007600097D4E199FECF11271FBB11E21EBBBDBB81
:10077000E29AE19A8DD4E199FECF11271FBB12E2D4
:100780001EBBADBBE29AE19A83D478942AD06DD493
:10079000809BFDCF7ACE7CD4F894E199FECF1127CF
:1007A0001FBB10E31EBB0DBBE29AE19A71D4E19925
:1007B000FECF11271FBB11E31EBBBDBBE29AE19A1E
:1007C00067D4E199FECF11271FBB12E31EBBADBB5F
:1007D000E29AE19A5DD4789404D047D4819BFDCF0E
:1007E00054CE10E0B1D213E0B5D2FF24E8E0F0E13E
:1007F00010E0EF0DF11FC895102D173119F08ED2B2
:10080000F394F4CF08959924F894AAD210E09CD2DE
:1008100010E0A0D2FF24EEEDFFE010E0EF0DF11F9D
:10082000C895102D173119F079D2F394F4CF002721
:10083000DD24BB24AA2450965B2E4A2E90EAFCD2DB
:100840008B2F18D38A2F16D391EAF1D2089412D3A2
:10085000182F90EAAAD28D2DC6D2812FC4D2DCD215
:10086000FDD3A3941A2D123309F00CC015E26CD2FB
:1008700011E070D2B3941B2D51D210E34FD215E288
:100880004DD2AA240395D39411960F3FB9F60027B1
:1008900092EA8BD28D2DA7D28FEFA5D2BDD2DED317
:1008A000A3941A2D123309F00CC015E24DD211E0B9
:1008B00051D2B3941B2D32D210E330D215E22ED296
:1008C000AA240395D3940F3F19F715E23DD211E006
:1008D00041D211E023D210E021D210E01FD215E264
:1008E0001DD2E1D3992410E02FD213E033D2FF249C
:1008F000EAEFFFE010E0EF0DF11FC895102D173162
:1009000019F00CD2F394F4CFCED3CDD30027B52D6C
:10091000A42D90EA4AD2802F66D291EA41D208945F
:1009200062D2182F90EA88D28B2FA4D28A2FA2D21B
:1009300091EA7DD208949ED2282F121729F411969D
:1009400003950F3F31F728C00BD219E1FDD111E01B
:1009500001D2FF24E8E1F0E110E0EF0DF11FC895AE
:10096000102D173119F0DAD1F394F4CF10E0ECD157
:1009700012E0F0D1FF24E0E2F0E110E0EF0DF11F12
:10098000C895102D173119F0C9D1F394F4CF102F59
:10099000C5D19924789478C110E0D6D115E0DAD188
:1009A000FF24ECEEFFE010E0EF0DF11FC895102DD5
:1009B000173119F0B3D1F394F4CF75D374D373D343
:1009C00010916E00103448F510916F00103448F506
:1009D00010917000103448F510917100103448F5F2
:1009E00010917200103448F510917300103448F5DE
:1009F00010917400103448F510917500103448F5CA
:100A000010917600103448F510917700103448F5B5
:100A100010917800103448F52BC010E310936E004D
:100A2000CFCF10E310936F00CBCF10E31093700083
:100A3000C7CF10E310937100C3CF10E3109372007F
:100A4000BFCF10E310937300BBCF10E3109374007B
:100A5000B7CF10E310937500B3CF10E31093760077
:100A6000AFCF10E310937700ABCF10E31093780073
:100A7000109178001395109378001A33F9F510E36C
:100A800010937800109177001395109377001A3324
:100A9000A9F510E310937700109176001395109349
:100AA00076001A3359F510E3109376001091750013
:100AB0001395109375001A3309F510E31093750020
:100AC000109174001395109374001A33B9F410E365
:100AD00010937400109173001395109373001A33E0
:100AE00069F410E310937300109172001395109342
:100AF00072001A3319F410E31093720015E3D12E2B
:100B000090EA53D18D2D6FD110916E00812F6BD152
:100B100083D1A4D2D39490EA48D18D2D64D1109181
:100B20006F00812F60D178D199D2D39490EA3DD1D2
:100B30008D2D59D110917000812F55D16DD18ED24C
:100B4000D39490EA32D18D2D4ED110917100812F26
:100B50004AD162D183D2D39490EA27D18D2D43D14B
:100B600010917200812F3FD157D178D2D39490EA5F
:100B70001CD18D2D38D110917300812F34D14CD1DF
:100B80006DD2D39490EA11D18D2D2DD11091740096
:100B9000812F29D141D162D2D39490EA06D18D2DF3
:100BA00022D110917500812F1ED136D157D2D39406
:100BB00090EAFBD08D2D17D110917600812F13D1A3
:100BC0002BD14CD2D39490EAF0D08D2D0CD1109132
:100BD0007700812F08D120D141D2D39490EAE5D07B
:100BE0008D2D01D110917800812FFDD015D136D2F5
:100BF00018E1D12E0027E4E8FFE010E0E00FF11F3C
:100C0000C895102D92EAD1D08D2DEDD0812FEBD04B
:100C100003D124D20395D394003169F710E4D12E87
:100C2000002710E091D014E095D0E4E9FFE010E057
:100C3000E00FF11FC895102D92EAB7D08D2DD3D0BB
:100C4000812FD1D0E9D00AD20395D394003169F72E
:100C5000E3D029D185D010E077D012E07BD0FF24FB
:100C6000E8E0F0E110E0EF0DF11FC895102D17310D
:100C700019F054D0F394F4CF99247894C298AA9898
:100C800012D211D210D20ACA839B05C0829B55CAC8
:100C90008910FACF0FC0E9D18399F6CFE6D1839BB3
:100CA000FDCFE9C9E2D18299EFCFDFD1829BFDCFA1
:100CB000E2C9FFCF10E019BF789410E41BBF50D0F9
:100CC000112742D0112746D0112704E51F93E6E1F2
:100CD000F9E126D01F9113951013F8CF10EA15BF34
:100CE0000000000000008895ABD19DC9E0E8FDE060
:100CF00025E0C69801D008959498C895319638E0BB
:100D0000959807FCC79A07FEC798000C959A3A95E4
:100D1000B9F72A9591F7949AC69A0895E2EBF0E113
:100D20002227EE24412F140F2E1D140F2E1D140FF9
:100D30002E1D140F2E1D140F2E1DE10FF21F26E085
:100D4000002494980000D9CF1068012E21E0C698A5
:100D50009498D5CF1064012E21E0C6989498CFCFF7
:100D600010E0F2DF10E0F6DF24E52F9310E2D6DF8B
:100D70002F912A95D1F710E0E7DF10E0EBDF08951F
:100D800021C505200C00C49883D1C49A00000895A1
:100D900072E07A95F1F7089571E07A95F1F7089588
:100DA000B99ABB98F5DFB998F7DF892FBB9AF4DFC2
:100DB0000894881F01C0880F59F0B99A18F40000F0
:100DC000BB9802C0BB9A00C0E3DFB998E1DFF3CF64
:100DD000B99ABB98DDDFB998B19BFECF8894B399DF
:100DE0000894D6DF089590FFE3CF661F81E0B99A9B
:100DF000CFDFB998CDDF8894B3990894881FB8F7EE
:100E0000B99A679510F4BB9801C0BB9AC1DFB99835
:100E1000B19BFECFBDDF0895B99ABB9AB9DFB998EF
:100E2000BBDFBB98B5DF0895662755270895A09AC4
:100E3000A198AEDFA098B0DF892FA19AADDF08940A
:100E4000881F01C0880F59F0A09A18F40000A198DB
:100E500002C0A19A00C09CDFA0989ADFF3CFA09AAD
:100E6000A19896DFA098989BFECF889499990894B2
:100E70008FDF089590FFE3CF551F81E0A09A88DFB0
:100E8000A09886DF889499990894881FB8F7A09A4B
:100E9000579510F4A19801C0A19A7ADFA098989B69
:100EA000FECF76DF0895A09AA19A72DFA09874DF32
:100EB000A1986EDF089517E2112E10E1012E18D0CF
:100EC00010937E0013E0112E18EE012E11D0109316
:100ED0007F00112414E6012E0BD010938000112402
:100EE0001AE0012E05D0209282001093810008950F
:100EF0001127311438F011F4201420F02018310893
:100F00001395F7CF08959394189510E01BBF18958B
:100F10008DA0A7A2A0ADA8A520B7A8AFA03A1700A2
:100F20004352554D20B7A8AFA03A17008AAEAB2D5B
:100F3000A2AE20AAAEAFA8A917008FAEA4AAABBEDE
:100F4000B7A8B2A520B7A8AF170082BBA1A5B0A8CB
:100F5000B2A51700AFB0AEB8A8A2AAB320B7A8AF89
:100F6000A0173C2020202020B7A8AF202020203E22
:100F70001700A4A0ABA5A52E2E2E1700AFB0AEB8BB
:100F8000A8B2BC174372756D204279204877616E14
:100F9000672E736B4368697052657365747465720C
:100FA00020562E20170020202053414D53554E47E8
:100FB00020202017202020205845524F5820202044
:100FC0002017202020202044454C4C202020201792
:100FD0002020202020204D42202020202017208F5C
:100FE000A8B8A8AC20B7A8AF2E2E2E17208CA5AD80
:100FF000BFA5AC204352554D17008FB0AEA2A5B08F
:10100000BFA5AC20B7A8AF172020202083AEB2AE7A
:10101000A2AE2020202017008EB8A8A1AAA01700F9
:10102000AFAE20A0A4B0A5B1B3202417C8EFD0E084
:101030002197F1F70895C1EFD1E02197F1F70895D5
:1010400015E02FEF2A95F1F71A95D9F708951FE0CB
:101050002FEF2A95F1F71A95D9F708951EE12FEF92
:101060002A95F1F71A95D9F7089516E42FEF2A95E6
:10107000F1F71A95D9F7089514E62FEF2A95F1F7AD
:101080001A95D9F7089514E6D6DF1A95E9F7089569
:1010900018ECD1DF1A95E9F70895ACEBB2E0CBDF9D
:1010A0001197E9F70895E8EEF3E0C5DF3197E9F726
:1010B0000895003E5149453E0000427F40000042F5
:1010C00061514946002141454B31001814127F10EF
:1010D000002745454539003C4A4949300003017124
:1010E000090700364949493600064949291E0000CA
:1010F00000000000FFFFFFFFFFFFFFFFFFFFFFFFFC
:10110000FFFFFFFFFFFFFFFFFFFFFFFF00000C0CD3
:101110000000007F3E1C080000081C3E7F00000607
:1011200005000605000503000503004466776644D4
:10113000001133773311001C3E3E3E1C0010385422
:10114000101F0004027F02040010207F20100010F6
:10115000105438100010385410100040444A5140C8
:101160000040514A444000203038302000081838F0
:1011700018080000000000000000005F00000000F0
:101180000700070000147F147F1400242A7F2A120E
:1011900000231308646200364955225000000503FD
:1011A000000000001C224100000041221C00000A37
:1011B000041F040A0008083E080800005030000020
:1011C00000080808080800006060000000201008FF
:1011D0000402003E5149453E0000427F400000426B
:1011E00061514946002141454B31001814127F10CE
:1011F000002745454539003C4A4949300003017103
:10120000090700364949493600064949291E0000A8
:101210003636000000005636000000081422410057
:101220000014141414140000412214080002015187
:10123000090600324979413E007E0909097E007F96
:1012400049494936003E41414122007F4141221C2B
:10125000007F49494941007F09090901003E414990
:10126000497A007F0808087F0000417F4100002084
:1012700040413F01007F08142241007F4040404030
:10128000007F020C027F007F0408107F003E414176
:10129000413E007F09090906003E4151215E007F61
:1012A000091929460046494949310001017F0101D8
:1012B000003F4040403F001F2040201F003F40387B
:1012C000403F0063140814630007087008070061BA
:1012D00051494543007F41410000000204081020AD
:1012E000000041417F000004020102040040404030
:1012F0004040000001020400002054545478007F54
:101300004844443800384444442000384444487F2A
:1013100000385454541800087E090102000C52523F
:10132000523E007F080404780000447D4000002005
:1013300040443D00007F102844000000417F4000F1
:10134000007C04180478007C0804047800384444C5
:101350004438007C1414140800081414187C007C11
:101360000804040800085454542000043F4440205A
:10137000003C4040207C001C2040201C003C4038A9
:10138000403C004428102844000C5050503C00447D
:1013900064544C440000083641000000007F000007
:1013A000000041360800000804080408FFFFFFFFA2
:1013B000FFFF007E0909097E007F45454539007F12
:1013C00049494936007F0101010300C07E417FC0C9
:1013D000007F494949410077087F08770041494922
:1013E0004936007F1008047F007E2013087E007FAE
:1013F0000814224100403C02017F007F020C027F62
:10140000007F0808087F003E4141413E007F010106
:10141000017F007F09090906003E41414122000188
:10142000017F010100074848483F001C227F221C21
:10143000006314081463003F20203F60000F080879
:10144000087F007F407E407F003F203C207F0001DE
:101450007F484830007F4830007F007F4848483050
:1014600000224949493E007F083E413E0046291975
:10147000097F002054545478003C4A4A4930007C8B
:1014800054542800007C04040C0000C078447CC044
:10149000003854545418006C107C106C00445454A0
:1014A0002800007C2010087C007C2112097C007C34
:1014B00010284400007008047C00007C0810087CA0
:1014C000007C1010107C003844444438007C040434
:1014D000047C007C141414080038444444200004A4
:1014E000047C0404000C5050503C003048FC483050
:1014F000004428102844007C40407CC0000C1010A0
:10150000107C007C407C407C007C407C40FC0004E3
:101510007C505020007C5020007C007C50502000EB
:10152000002844545438007C10384438000854349F
:10153000147C00FCFE070383836367FEFC00003F0E
:101540007FE6C6C1C1C0E07F3F00000000181CFF5D
:10155000FF0000000000000000C0C0FFFFC0C0008E
:1015600000000006070303030383C7FE7C0000E0BE
:10157000F0F8DCCEC7C3C1C0C000000C0E87838367
:101580008383C7FE3C00003070E1C1C1C1C1E37F6D
:101590003E00000000C0F03C0E06FFFF0000000609
:1015A000070706060606FFFF0600007EFFC3C3C34B
:1015B000C3C3C383030000C0C0C0C0C0C0C0E17FBC
:1015C0003F0000FEFFC3C3C3C3C3C3870600007F41
:1015D000FFE1C0C0C0C0E17F3F000003030303037D
:1015E00003C3F33F0F0000000000F0FC0F030000F6
:1015F0000000007CFEC783838383C7FE7C00003E1F
:101600007FE3C1C1C1C1E37F3E00007CFEC783838D
:101610008383C7FEFC00003070E1C1C1C1C1E17F1E
:101620003F000000C0E070303070E000F0F0C0C05B
:10163000C08000C0D8D80080C0C0C0C0C08000003A
:10164000000000000000000000000000000000009A
:10165000000000000000000000000007081008075C
:10166000001F1511001F050D12001000121F1000A1
:10167000100011151F000000070F1C18181C0E0089
:101680001F1F00001F1F00181F1F00FFFFD8181882
:101690001F0F00000000000000000000000000001C
:1016A000000000000000000000000000000000003A
:1016B000000000000000000000000000000000002A
:1016C000000000000000000000000000000000001A
:1016D000000000000000000000000000000000FC0E
:1016E000FE6666E6BE1CE0F0F848485870600030C0
:1016F000785858D8D800E0F0F8484858706000FE94
:10170000FE880888C800FEFE880888C800E0F078D7
:10171000484858706000F0F8181838700000000051
:1017200000000000000000000000000000000000B9
:10173000000000030300000103030001030303038F
:10174000010000030383830301000001030303037B
:10175000010000010303030301000103030303016C
:101760000000010303030301000003030300000062
:101770000000000000000000000000000000000069
:101780000000000000000000000000000000000059
:1017900000000000000000043F040001001C2222A1
:1017A000221C003E040202040000000000000000B1
:1017B0000000000000000000000000000000000029
:1017C000000000000000004649494931007E090937
:1017D000097E007F0204027F004649494931003FEB
:1017E0004040403F007F0408107F003E4149497A55
:1017F0000000000036495522500000006314081410
:1018000063007F49494941007F09192946003E414B
:1018100041413E00631408146300FF01018101018E
:1018200001810101031F1F030101010101010101E8
:10183000FF018181818101010101031F1F830101DA
:10184000010101010101FF01010181818101839FEA
:101850001F03810101010101FF01010181818181DA
:101860000101031F1F0301010101810101FFFF00AD
:10187000000F1020100F00042A2A2A1000042A2A20
:101880002A100000FF003F2020201F00102A2A3CC1
:10189000011F211000102A2A3C00FF00001F2020F9
:1018A0002000203F20003F0814220000FF00001FFE
:1018B0002020283800003C040438001028283F006D
:1018C00000FF0F0D0C080808080808080C0F0F0C83
:1018D000080808080808080C0F0C08080808080879
:1018E00008080C0F0F0C080808080808080C0F0C53
:1018F0000808080808080C0F0F0C08080808080C4E
:101900000F0C08080808080808080C0F0F0C080836
:10191000080808080C0F00000000C0E0E0F0703874
:10192000181808000000000000000000000000007F
:101930000000000040804000000014081400000077
:10194000000000001408140000000000000028102F
:10195000280000800080000000000000000000005F
:10196000000000000000000000000000000F3F7FAA
:101970007FF0E0C0C0800000000000000000000018
:101980000000000000000000010001502050000095
:101990000000000A040A00800080000000140814FF
:1019A00000000000A040A0020102000000000000B2
:1019B0000000000000000000000000000000000027
:1019C0000000000000000001010101000000000013
:1019D0000000000000000000000000000000000007
:1019E00000000000000000000000000201020000F2
:1019F00000000000000000000000000000000000E7
:101A000000000000000000000000000000000000D6
:101A100000000000000000000000000000000000C6
:101A200000000000000000000000000000000000B6
:101A30000000000000000000000000007E818181A5
:101A4000814200F8080808F800F8402010F800F873
:101A5000102010F80000C0C00000C0C00000C0C0CE
:101A6000000000000000000000000000000000F87E
:101A7000F00080C0C0C0C080000000000000000076
:101A800000000000000000000080C0000000000016
:101A90000000000000000000000000000000000046
:101AA0000000000000000000000000000000000036
:101AB0000000000000000000000000000000000026
:101AC000000000FFFF1E0E070707070606060606B2
:101AD00006060606060606060606060E1EFFFF009A
:101AE00000000000000000000000000000000000F6
:101AF00000000000000000000000000000000000E6
:0E1B00000000000000000000000000000000D7
:00000001FF
